:020000040800F2
:1000000000A00020FD0D0008C50B0008CB0B000868
:10001000D10B0008D70B0008DD0B00080000000022
:10002000000000000000000000000000E30B0008DA
:10003000F10B000800000000FF0B00080D0C000889
:100040004D0E00084D0E00084D0E00084D0E000824
:100050004D0E00084D0E00084D0E00084D0E000814
:100060004D0E00084D0E00084D0E00084D0E000804
:100070004D0E00084D0E00084D0E00084D0E0008F4
:100080004D0E00084D0E00084D0E00084D0E0008E4
:100090004D0E00084D0E00084D0E00084D0E0008D4
:1000A0004D0E00084D0E00084D0E00084D0E0008C4
:1000B000190C00084D0E00084D0E00084D0E0008EA
:1000C0004D0E00084D0E00084D0E00084D0E0008A4
:1000D0004D0E00082D0C0008410C0008550C0008BE
:1000E0004D0E00084D0E00084D0E00084D0E000884
:1000F0004D0E00084D0E00084D0E00084D0E000874
:100100000000000000000000000000004D0E00088C
:10011000690C00087D0C00084D0E00084D0E00080B
:100120004D0E00084D0E00084D0E00084D0E000843
:100130004D0E00084D0E00080000000000000000F9
:100140004D0E00084D0E00084D0E00080000000086
:10015000000000000000000000000000000000009F
:1001600000000000000000004D0E00084D0E0008C9
:100170004D0E00080000000000000000000000001C
:08018000000000004D0E000814
:0801880000000000000000006F
:1001900010B5054C237833B9044B13B10448AFF3C1
:1001A00000800123237010BD7000002000000000BB
:1001B0009C5F000808B5034B1BB103490348AFF32C
:1001C000008008BD00000000740000209C5F000853
:1001D00001F0FF01102A2BDB10F0070F08D010F8F8
:1001E000013B013A8B422DD010F0070F42B3F6D1FC
:1001F000F0B441EA012141EA014122F007047FF015
:1002000000070023F0E80256083C85EA010586EA6B
:10021000010685FA47F5A3FA87F586FA47F6A5FAA7
:1002200087F68EB9EED1F0BC01F0FF0102F00702B3
:1002300032B110F8013B013A83EA010313B1F8D15E
:100240000020704701387047002D06BF354603383F
:10025000073815F0010F07D1013015F4807F02BF78
:10026000013015F4C03F0130F0BC0138704700BFC9
:1002700080B582B000AF78607B681B68B3F1804FB7
:1002800002D1002004F0DAFC00BF0837BD4680BD73
:1002900080B582B000AF78607B681B68084A9342E3
:1002A0000AD101220749084803F0B8FA054B1B7828
:1002B0001946034804F0CCFD00BF0837BD4680BD99
:1002C00000380140040000100002002080B500AF9B
:1002D00000F0BEFD00F02AF800F014FA00F096F8E5
:1002E00000F0BAF800F01EF900F04CF900F07AF9CD
:1002F00000F0A8F900F0D6F9084802F075FD04F006
:100300006FFE01220649074803F088FA04F02CFD2D
:10031000054BD3F8C0319847F8E700BF940300209D
:100320000400001000020020D809002080B59EB013
:1003300000AF07F1500328220021184604F0D0FE38
:1003400007F13C0300221A605A609A60DA601A6171
:100350003B463C220021184604F0C2FE0B233B65BD
:100360004FF4A0237B650023BB6501233B6610236C
:100370007B660123BB660223FB664FF480333B6739
:100380004FF4E0137B6707F15003184601F0E0F8E3
:100390000346002B01D000F051FA0F23FB63022328
:1003A0003B6400237B644FF48063BB640023FB64E5
:1003B00007F13C030221184601F0D2FF0346002B4F
:1003C00001D000F03BFA104B3B600023BB600023E0
:1003D000FB6000233B6100237B610023BB610023A2
:1003E000FB614FF400737B600023BB633B46184600
:1003F00002F0ECF90346002B01D000F01FFA00BF19
:100400007837BD4680BD00BF3F00030080B500AF18
:100410000F4B104A1A600E4B00225A600C4B7F2281
:100420009A600B4BFF22DA60094B00221A61084BDD
:1004300000225A61064B00229A61054802F076FBC1
:100440000346002B01D000F0F9F900BF80BD00BFCA
:10045000880200200028004080B588B000AF07F176
:10046000100300221A605A609A60DA603B1D002275
:100470001A605A609A60264B4FF080421A60244BF3
:1004800041F63F725A60224B00229A60204B42F2A2
:100490002732DA601E4B00221A611D4B00229A613E
:1004A0001B4802F049FC0346002B01D000F0C6F9BE
:1004B0004FF480533B6107F110031946144802F0D2
:1004C0001CFE0346002B01D000F0B8F900237B602E
:1004D0000023FB603B1D19460D4803F029F8034635
:1004E000002B01D000F0AAF90A4804F001FE00BF79
:1004F0004FF4BA720849094804F0FAFD084804F0BC
:10050000F7FD04F083FB00BF2037BD4680BD00BF70
:1005100094030020B45F00082C600008BC5F000852
:10052000D45F000880B500AF144B154A1A60134B16
:100530004FF4E1325A60114B00229A600F4B0022B7
:10054000DA600E4B00221A610C4B0C225A610B4BE5
:1005500000229A61094B0022DA61084B00221A62DC
:10056000064B00225A62054803F080F80346002B30
:1005700001D000F063F900BF80BD00BFA8020020D9
:10058000004C004080B500AF144B154A1A60134B65
:100590004FF4E1325A60114B00229A600F4B002257
:1005A000DA600E4B00221A610C4B0C225A610B4B85
:1005B00000229A61094B0022DA61084B00221A627C
:1005C000064B00225A62054803F050F80346002B00
:1005D00001D000F033F900BF80BD00BF78010020DA
:1005E0000050004080B500AF144B154A1A60134B01
:1005F0004FF4E1325A60114B00229A600F4B0022F7
:10060000DA600E4B00221A610C4B0C225A610B4B24
:1006100000229A61094B0022DA61084B00221A621B
:10062000064B00225A62054803F020F80346002BCF
:1006300001D000F003F900BF80BD00BF0002002020
:100640000038014080B500AF144B154A1A60134BB7
:100650004FF4E1325A60114B00229A600F4B002296
:10066000DA600E4B00221A610C4B0C225A610B4BC4
:1006700000229A61094B0022DA61084B00221A62BB
:10068000064B00225A62054802F0F0FF0346002B99
:1006900001D000F0D3F800BF80BD00BFE003002010
:1006A0000044004080B500AF144B154A1A60134B4C
:1006B0004FF4E1325A60114B00229A600F4B002236
:1006C000DA600E4B00221A610C4B0C225A610B4B64
:1006D00000229A61094B0022DA61084B00221A625B
:1006E000064B00225A62054802F0C0FF0346002B69
:1006F00001D000F0A3F800BF80BD00BF9C00002027
:100700000048004080B58CB000AF07F11C03002208
:100710001A605A609A60DA601A613D4B5B693C4A24
:1007200043F4001353613A4B5B6903F40013BB615C
:10073000BB69374B5B69364A43F400235361344B42
:100740005B6903F400237B617B69314B5B69304A51
:1007500043F4800353612E4B5B6903F480033B61D8
:100760003B692B4B5B692A4A43F400335361284BA6
:100770005B6903F40033FB60FB68254B5B69244A2B
:1007800043F480235361224B5B6903F48023BB60F5
:10079000BB681F4B5B691E4A43F4801353611C4BBB
:1007A0005B6903F480137B607B6800224FF608715D
:1007B000184800F0B5FE3723FB614FF490133B62FD
:1007C00000237B6207F11C031946124800F02EFD3E
:1007D0004FF60873FB6101233B6200237B62002319
:1007E000BB6207F11C0319460A4800F01FFD0123F4
:1007F000FB6100233B6200237B6207F11C03194667
:100800004FF0904000F012FD00BF3037BD4680BD74
:10081000001002400010004880B582B000AF786040
:10082000391D4FF6FF730122034802F06DFF7B680C
:1008300018460837BD4680BD0002002080B400AFD6
:1008400072B600BFFEE7000080B582B000AF0F4B6C
:100850009B690E4A43F0010393610C4B9B6903F0C3
:1008600001037B607B68094BDB69084A43F08053D6
:10087000D361064BDB6903F080533B603B68072084
:1008800000F01CFC00BF0837BD4680BD00100240D0
:1008900080B485B000AF78607B681B680D4A9342D6
:1008A00011D14FF40043FB60FB6893FAA3F3BB60E4
:1008B000BB68B3FA83F3DBB21A46074B13449B00C1
:1008C0001A460123136000BF1437BD465DF8047B50
:1008D000704700BF002800400081901080B584B0B0
:1008E00000AF78607B681B68B3F1804F13D10C4B6D
:1008F000DB690B4A43F00103D361094BDB6903F069
:100900000103FB60FB68002200211C2000F0E1FBDA
:100910001C2000F0FAFB00BF1037BD4680BD00BFB1
:100920000010024080B592B000AF786007F1340348
:1009300000221A605A609A60DA601A617B681B684C
:10094000974A934231D1974BDB69964A43F400238F
:10095000D361944BDB6903F400233B633B6B914B06
:100960005B69904A43F4002353618E4B5B6903F447
:100970000023FB62FB6A4FF440637B630223BB638B
:100980000023FB6303233B6405237B6407F13403EB
:100990001946854800F04AFC00220021342000F06E
:1009A00098FB342000F0B1FBF5E07B681B687F4AC0
:1009B00093424DD17B4BDB697A4A43F48013D36178
:1009C000784BDB6903F48013BB62BB6A754B5B69D0
:1009D000744A43F400235361724B5B6903F40023B0
:1009E0007B627B6A6F4B5B696E4A43F48013536191
:1009F0006C4B5B6903F480133B623B6A4FF480539A
:100A00007B630223BB630023FB6303233B64052357
:100A10007B6407F134031946634800F007FC0423A4
:100A20007B630223BB630023FB6303233B64052337
:100A30007B6407F1340319465D4800F0F7FB0022A0
:100A40000021352000F045FB352000F05EFBA2E0E0
:100A50007B681B68574A934230D1524B9B69514A7D
:100A600043F4804393614F4B9B6903F48043FB61E4
:100A7000FB694C4B5B694B4A43F400235361494B80
:100A80005B6903F40023BB61BB6930237B630223F2
:100A9000BB630023FB6303233B6407237B6407F1F1
:100AA00034031946404800F0C1FB002200212520F4
:100AB00000F00FFB252000F028FB6CE07B681B6832
:100AC0003D4A934231D1374BDB69364A43F4003318
:100AD000D361344BDB6903F400337B617B69314BB9
:100AE0005B69304A43F4003353612E4B5B6903F476
:100AF00000333B613B690C237B630223BB63002310
:100B0000FB6303233B6407237B6407F1340319462B
:100B10004FF0904000F08AFB00220021262000F0D8
:100B2000D8FA262000F0F1FA35E07B681B68234AEA
:100B3000934230D11B4BDB691A4A43F48023D361C3
:100B4000184BDB6903F48023FB60FB68154B5B6982
:100B5000144A43F480235361124B5B6903F48023EE
:100B6000BB60BB684FF440637B630223BB6300231D
:100B7000FB6303233B6407237B6407F134031946BB
:100B80000F4800F053FB00220021272000F0A1FABB
:100B9000272000F0BAFA00BF4837BD4680BD00BF2D
:100BA000004C004000100240000800480050004087
:100BB000000C00480038014000440040004800405C
:100BC0000004004880B400AFFEE780B400AFFEE749
:100BD00080B400AFFEE780B400AFFEE780B400AFA2
:100BE000FEE780B400AF00BFBD465DF8047B7047F0
:100BF00080B400AF00BFBD465DF8047B704780B491
:100C000000AF00BFBD465DF8047B704780B500AF04
:100C100000F064F900BF80BD80B500AF024802F06B
:100C20004DF900BF80BD00BF9403002080B500AF28
:100C3000024802F037FE00BF80BD00BF0002002066
:100C400080B500AF024802F02DFE00BF80BD00BF9E
:100C5000E003002080B500AF024802F023FE00BF91
:100C600080BD00BF9C00002080B500AF024802F0AC
:100C700019FE00BF80BD00BFA802002080B500AFF4
:100C8000024802F00FFE00BF80BD00BF78010020C7
:100C900080B586B000AFF860B9607A6000237B61F0
:100CA0000AE0AFF300800146BB685A1CBA60CAB2C2
:100CB0001A707B6901337B617A697B689A42F0DB49
:100CC0007B6818461837BD4680BD80B586B000AF3A
:100CD000F860B9607A6000237B6109E0BB685A1C48
:100CE000BA601B781846FFF797FD7B6901337B617B
:100CF0007A697B689A42F1DB7B6818461837BD46F3
:100D000080BD80B483B000AF78604FF0FF331846E9
:100D10000C37BD465DF8047B704780B483B000AFEC
:100D2000786039603B684FF400525A6000231846DF
:100D30000C37BD465DF8047B704780B483B000AFCC
:100D40007860012318460C37BD465DF8047B704778
:100D500080B485B000AFF860B9607A6000231846AF
:100D60001437BD465DF8047B7047000080B586B03F
:100D700000AF7860144A154BD31A7B617B693B61E5
:100D8000134B1B68002B02D1114B124A1A60104BF7
:100D90001A687B6813443A699A4207D204F076F9DC
:100DA00003460C221A604FF0FF3309E0084B1B6822
:100DB000FB60074B1A687B681344054A1360FB68A5
:100DC00018461837BD4680BD00A000200004000072
:100DD0008C000020B00B002080B400AF064BD3F88D
:100DE0008830054A43F47003C2F8883000BFBD461E
:100DF0005DF8047B704700BF00ED00E0DFF834D001
:100E0000FFF7EAFF0C480D490D4A002302E0D458D1
:100E1000C4500433C4188C42F9D30A4A0A4C002344
:100E200001E013600432A242FBD304F035F9FFF76E
:100E30004DFAFEE700A00020000000207000002016
:100E40003461000870000020B00B0020FEE70000B5
:100E500080B500AF084B1B68074A43F010031360CE
:100E6000032000F02BF9002000F008F8FFF7ECFC5D
:100E70000023184680BD00BF0020024080B582B02C
:100E800000AF7860124B1A68124B1B7819464FF46A
:100E90007A73B3FBF1F3B2FBF3F3184600F043F9B6
:100EA0000346002B01D001230EE07B680F2B0AD8EC
:100EB000002279684FF0FF3000F00BF9064A7B689A
:100EC0001360002300E0012318460837BD4680BDAB
:100ED00000000020080000200400002080B400AFC3
:100EE000064B1B781A46064B1B681344044A1360D2
:100EF00000BFBD465DF8047B704700BF08000020BE
:100F00005407002080B400AF034B1B681846BD4651
:100F10005DF8047B704700BF5407002080B485B0A3
:100F200000AF78607B6803F00703FB600C4BDB6865
:100F3000BB60BA684FF6FF031340BB60FB681A0240
:100F4000BB68134343F0BF6343F40033BB60044A00
:100F5000BB68D36000BF1437BD465DF8047B7047A3
:100F600000ED00E080B400AF044BDB681B0A03F027
:100F700007031846BD465DF8047B704700ED00E0AE
:100F800080B483B000AF0346FB7197F90730002BA4
:100F90000BDBFB7903F01F02074997F907305B0968
:100FA000012000FA02F241F8232000BF0C37BD46B1
:100FB0005DF8047B704700BF00E100E080B483B0BF
:100FC00000AF03463960FB7197F90730002B0ADB4D
:100FD0003B68DAB20C4997F907301201D2B20B44E0
:100FE00083F800230AE03B68DAB20849FB7903F092
:100FF0000F03043B1201D2B20B441A7600BF0C3728
:10100000BD465DF8047B704700E100E000ED00E0C4
:1010100080B489B000AFF860B9607A60FB6803F013
:101020000703FB61FB69C3F10703042B28BF0423FB
:10103000BB61FB690433062B02D9FB69033B00E06B
:1010400000237B614FF0FF32BB6902FA03F3DA43FE
:10105000BB681A407B699A404FF0FF317B6901FA07
:1010600003F3D9437B680B40134318462437BD462E
:101070005DF8047B7047000080B582B000AF7860F7
:101080007B68013BB3F1807F01D301230FE00A4A63
:101090007B68013B53600F214FF0FF30FFF78EFF5D
:1010A000054B00229A60044B07221A600023184661
:1010B0000837BD4680BD00BF10E000E080B582B0BB
:1010C00000AF78607868FFF729FF00BF0837BD469A
:1010D00080BD80B586B000AF0346B9607A60FB730F
:1010E00000237B61FFF73EFF78617A68B968786911
:1010F000FFF78EFF024697F90F3011461846FFF7AB
:101100005DFF00BF1837BD4680BD80B582B000AF1F
:101110000346FB7197F907301846FFF731FF00BF10
:101120000837BD4680BD80B582B000AF7860786872
:10113000FFF7A2FF034618460837BD4680BD80B4BE
:1011400083B000AF78607B6893F82130022B08D021
:101150007B6804229A637B68002283F820200123A5
:1011600020E07B681B681A687B681B6822F00E020F
:101170001A607B681B681A687B681B6822F0010292
:101180001A607B681A6C7B68DB6B012101FA02F242
:101190005A607B68012283F821207B68002283F853
:1011A0002020002318460C37BD465DF8047B7047AD
:1011B00080B584B000AF78600023FB737B6893F840
:1011C0002130022B05D07B6804229A630123FB7334
:1011D00027E07B681B681A687B681B6822F00E0298
:1011E0001A607B681B681A687B681B6822F0010222
:1011F0001A607B681A6C7B68DB6B012101FA02F2D2
:101200005A607B68012283F821207B68002283F8E2
:1012100020207B685B6B002B03D07B685B6B78685E
:101220009847FB7B18461037BD4680BD80B487B019
:1012300000AF7860396000237B6154E13B681A6835
:1012400001217B6901FA03F31340FB60FB68002B6B
:1012500000F046813B685B6803F00303012B05D077
:101260003B685B6803F00303022B30D17B689B680B
:101270003B617B695B00032202FA03F3DB433A69BB
:1012800013403B613B68DA687B695B0002FA03F359
:101290003A6913433B617B683A699A607B685B6893
:1012A0003B6101227B6902FA03F3DB433A69134095
:1012B0003B613B685B681B0903F001027B6902FA32
:1012C00003F33A6913433B617B683A695A603B68B0
:1012D0005B6803F00303032B17D07B68DB683B617B
:1012E0007B695B00032202FA03F3DB433A69134094
:1012F0003B613B689A687B695B0002FA03F33A69D9
:1013000013433B617B683A69DA603B685B6803F0D2
:101310000303022B23D17B69DA087B68083253F878
:1013200022303B617B6903F007039B000F2202FA26
:1013300003F3DB433A6913403B613B681A697B69FD
:1013400003F007039B0002FA03F33A6913433B617E
:101350007B69DA087B680832396943F822107B68B8
:101360001B683B617B695B00032202FA03F3DB43EA
:101370003A6913403B613B685B6803F003027B6999
:101380005B0002FA03F33A6913433B617B683A69F5
:101390001A603B685B6803F44033002B00F0A080C8
:1013A000584B9B69574A43F001039361554B9B6926
:1013B00003F00103BB60BB68534A7B699B0802339F
:1013C00052F823303B617B6903F003039B000F223B
:1013D00002FA03F3DB433A6913403B617B68B3F1E4
:1013E000904F19D07B68494A934213D07B68484A92
:1013F00093420DD07B68474A934207D07B68464AA8
:10140000934201D1042308E0052306E0032304E00E
:10141000022302E0012300E000237A6902F00302C4
:10142000920093403A6913433B6137497B699B08BB
:1014300002333A6941F82320384B9B683B61FB68D3
:10144000DB433A6913403B613B685B6803F48013FC
:10145000002B03D03A69FB6813433B612F4A3B6979
:1014600093602E4BDB683B61FB68DB433A691340BA
:101470003B613B685B6803F40013002B03D03A69BF
:10148000FB6813433B61254A3B69D360234B5B6890
:101490003B61FB68DB433A6913403B613B685B6837
:1014A00003F40033002B03D03A69FB6813433B611C
:1014B0001A4A3B695360194B1B683B61FB68DB436D
:1014C0003A6913403B613B685B6803F48033002B4F
:1014D00003D03A69FB6813433B61104A3B691360D0
:1014E0007B6901337B613B681A687B6922FA03F3ED
:1014F000002B7FF4A3AE00BF00BF1C37BD465DF8D4
:10150000047B7047001002400000014000040048C6
:1015100000080048000C004800100048000401408A
:1015200080B483B000AF78600B467B8013467B703D
:101530007B78002B03D07A887B689A6102E07A88F6
:101540007B689A6200BF0C37BD465DF8047B70472C
:1015500080B5ADF5007D00AF3B1D18603B1D1B68DD
:10156000002B02D1012300F0F4BE3B1D1B681B6859
:1015700003F00103002B00F06A81B34B5B6803F0BA
:101580000C03042B0CD0B04B5B6803F00C03082B4E
:1015900059D1AD4B5B6803F48033B3F5803F52D132
:1015A0004FF40033C7F8F031D7F8F03193FAA3F3D2
:1015B000C7F8EC31D7F8EC31B3FA83F3DBB25B094F
:1015C000DBB243F00103DBB2012B02D19E4B1B685F
:1015D00015E04FF40033C7F8E831D7F8E83193FA53
:1015E000A3F3C7F8E4314FF40033C7F8E031D7F87C
:1015F000E03193FAA3F3C7F8DC31934B5B6A4FF405
:101600000032C7F8D821D7F8D82192FAA2F2C7F849
:10161000D421D7F8D421B2FA82F2D2B242F0200219
:10162000D2B202F01F02012101FA02F21340002B94
:1016300000F00C813B1D1B685B68002B40F00681AD
:10164000012300F086BE3B1D1B685B68B3F5803F3D
:1016500006D17D4B1B687C4A43F48033136030E035
:101660003B1D1B685B68002B0CD1774B1B68764ACF
:1016700023F480331360744B1B68734A23F4802374
:1016800013601EE03B1D1B685B68B3F5A02F0CD1F7
:101690006D4B1B686C4A43F4802313606A4B1B68D4
:1016A000694A43F4803313600BE0674B1B68664A5A
:1016B00023F480331360644B1B68634A23F4802354
:1016C0001360614BDB6A23F00F023B1D1B689B68B4
:1016D0005D491343CB623B1D1B685B68002B59D0EF
:1016E000FFF710FCC7F8F8010AE0FFF70BFC024611
:1016F000D7F8F831D31A642B02D9032300F029BE9E
:101700004FF40033C7F8D031D7F8D03193FAA3F3B0
:10171000C7F8CC31D7F8CC31B3FA83F3DBB25B092D
:10172000DBB243F00103DBB2012B02D1464B1B6855
:1017300015E04FF40033C7F8C831D7F8C83193FA31
:10174000A3F3C7F8C4314FF40033C7F8C031D7F85A
:10175000C03193FAA3F3C7F8BC313B4B5B6A4FF43B
:101760000032C7F8B821D7F8B82192FAA2F2C7F828
:10177000B421D7F8B421B2FA82F2D2B242F02002F8
:10178000D2B202F01F02012101FA02F21340002B33
:10179000ABD05CE0FFF7B6FBC7F8F8010AE0FFF753
:1017A000B1FB0246D7F8F831D31A642B02D90323D0
:1017B00000F0CFBD4FF40033C7F8B031D7F8B031E7
:1017C00093FAA3F3C7F8AC31D7F8AC31B3FA83F38B
:1017D000DBB25B09DBB243F00103DBB2012B02D1C8
:1017E000194B1B6815E04FF40033C7F8A831D7F840
:1017F000A83193FAA3F3C7F8A4314FF40033C7F824
:10180000A031D7F8A03193FAA3F3C7F89C310E4B5F
:101810005B6A4FF40032C7F89821D7F8982192FA02
:10182000A2F2C7F89421D7F89421B2FA82F2D2B288
:1018300042F02002D2B202F01F02012101FA02F2AC
:101840001340002BABD102E00010024000BF3B1D53
:101850001B681B6803F00203002B00F06F81D04B64
:101860005B6803F00C03002B0BD0CD4B5B6803F0DF
:101870000C03082B6CD1CA4B5B6803F48033002B3C
:1018800066D10223C7F89031D7F8903193FAA3F3C9
:10189000C7F88C31D7F88C31B3FA83F3DBB25B092C
:1018A000DBB243F00103DBB2012B02D1BC4B1B685E
:1018B00013E00223C7F88831D7F8883193FAA3F3ED
:1018C000C7F884310223C7F88031D7F8803193FA02
:1018D000A3F3C7F87C31B24B5B6A0222C7F87821C8
:1018E000D7F8782192FAA2F2C7F87421D7F87421B8
:1018F000B2FA82F2D2B242F02002D2B202F01F0259
:10190000012101FA02F21340002B07D03B1D1B6896
:101910001B69012B02D0012300F01BBDA04B1B68EB
:1019200023F0F8023B1D1B685B69F821C7F87011B2
:10193000D7F8701191FAA1F1C7F86C11D7F86C11B2
:10194000B1FA81F1C9B28B40954913430B60F5E0C0
:101950003B1D1B681B69002B00F085800123C7F825
:101960006831D7F8683193FAA3F3C7F86431D7F830
:101970006431B3FA83F3DBB203F1845303F58413C8
:101980009B001A4601231360FFF7BCFAC7F8F80161
:101990000AE0FFF7B7FA0246D7F8F831D31A022B5C
:1019A00002D9032300F0D5BC0223C7F86031D7F871
:1019B000603193FAA3F3C7F85C31D7F85C31B3FA1E
:1019C00083F3DBB25B09DBB243F00103DBB2012B33
:1019D00002D1734B1B6813E00223C7F85831D7F8C4
:1019E000583193FAA3F3C7F854310223C7F85031A2
:1019F000D7F8503193FAA3F3C7F84C31684B5B6AC0
:101A00000222C7F84821D7F8482192FAA2F2C7F873
:101A10004421D7F84421B2FA82F2D2B242F0200235
:101A2000D2B202F01F02012101FA02F21340002B90
:101A3000AFD05B4B1B6823F0F8023B1D1B685B6952
:101A4000F821C7F84011D7F8401191FAA1F1C7F871
:101A50003C11D7F83C11B1FA81F1C9B28B40504921
:101A600013430B606AE00123C7F83831D7F83831E7
:101A700093FAA3F3C7F83431D7F83431B3FA83F3C8
:101A8000DBB203F1845303F584139B001A46002351
:101A90001360FFF737FAC7F8F8010AE0FFF732FAE8
:101AA0000246D7F8F831D31A022B02D9032300F0EB
:101AB00050BC0223C7F83031D7F8303193FAA3F382
:101AC000C7F82C31D7F82C31B3FA83F3DBB25B09BA
:101AD000DBB243F00103DBB2012B02D1304B1B68B8
:101AE00013E00223C7F82831D7F8283193FAA3F37B
:101AF000C7F824310223C7F82031D7F8203193FAF0
:101B0000A3F3C7F81C31264B5B6A0222C7F81821E1
:101B1000D7F8182192FAA2F2C7F81421D7F81421A5
:101B2000B2FA82F2D2B242F02002D2B202F01F0226
:101B3000012101FA02F21340002BAFD13B1D1B68BB
:101B40001B6803F00803002B00F0DA803B1D1B68C4
:101B50009B69002B69D00123C7F81031D7F81031E9
:101B600093FAA3F3C7F80C31D7F80C31B3FA83F327
:101B7000DBB21A460B4B13449B001A460123136039
:101B8000FFF7C0F9C7F8F8010EE0FFF7BBF902460E
:101B9000D7F8F831D31A022B06D90323D9E300BFB3
:101BA00000100240208190100223C7F80831D7F8B6
:101BB000083193FAA3F3C7F8043107F580730222C2
:101BC0001A6007F580731B6893FAA3F207F1FC0310
:101BD0001A6007F1F80302221A6007F1F8031B6884
:101BE00093FAA3F207F1F4031A60A54B5A6A07F1BE
:101BF000F0030221196007F1F0031B6893FAA3F1C7
:101C000007F1EC03196007F1EC031B68B3FA83F3E7
:101C1000DBB243F06003DBB203F01F03012101FAE2
:101C200003F31340002BB0D06AE007F1E803012270
:101C30001A6007F1E8031B6893FAA3F207F1E403C3
:101C40001A6007F1E4031B68B3FA83F3DBB21A46A8
:101C50008C4B13449B001A4600231360FFF752F984
:101C6000C7F8F80109E0FFF74DF90246D7F8F83157
:101C7000D31A022B01D903236BE307F1E0030222FD
:101C80001A6007F1E0031B6893FAA3F207F1DC0383
:101C90001A6007F1D80302221A6007F1D8031B6803
:101CA00093FAA3F207F1D4031A6007F1D0030222DA
:101CB0001A6007F1D0031B6893FAA3F207F1CC0373
:101CC0001A606F4B5A6A07F1C8030221196007F1C5
:101CD000C8031B6893FAA3F107F1C403196007F165
:101CE000C4031B68B3FA83F3DBB243F06003DBB2D7
:101CF00003F01F03012101FA03F31340002BB2D1BB
:101D00003B1D1B681B6803F00403002B00F0588187
:101D1000002387F8FF315A4BDB6903F08053002B17
:101D200012D1574BDB69564A43F08053D361544B71
:101D3000DB6903F0805207F108031A6007F108031A
:101D40001B68012387F8FF314F4B1B6803F4807336
:101D5000002B1AD14C4B1B684B4A43F48073136021
:101D6000FFF7D0F8C7F8F80109E0FFF7CBF8024613
:101D7000D7F8F831D31A642B01D90323E9E2424B97
:101D80001B6803F48073002BEFD03B1D1B68DB68DE
:101D9000012B06D13A4B1B6A394A43F00103136207
:101DA0002FE03B1D1B68DB68002B0CD1344B1B6AFA
:101DB000334A23F001031362314B1B6A304A23F08C
:101DC000040313621DE03B1D1B68DB68052B0CD16F
:101DD0002B4B1B6A2A4A43F004031362284B1B6AED
:101DE000274A43F0010313620BE0254B1B6A244A88
:101DF00023F001031362224B1B6A214A23F00403E0
:101E000013623B1D1B68DB68002B6BD0FFF77AF871
:101E1000C7F8F8010BE0FFF775F80246D7F8F8317C
:101E2000D31A41F28832934201D9032391E207F198
:101E3000C00302221A6007F1C0031B6893FAA3F2E1
:101E400007F1BC031A6007F1B80302221A6007F118
:101E5000B8031B6893FAA3F207F1B4031A6007F101
:101E6000B4031B68B3FA83F3DBB25B09DBB243F064
:101E70000203DBB2022B09D1014B1B6A14E000BF45
:101E800000100240208190100070004007F1B00364
:101E900002221A6007F1B0031B6893FAA3F207F15C
:101EA000AC031A60BB4B5B6A07F1A8020221116008
:101EB00007F1A802126892FAA2F107F1A4021160D8
:101EC00007F1A4021268B2FA82F2D2B242F04002E2
:101ED000D2B202F01F02012101FA02F21340002BDC
:101EE00099D063E0FFF70EF8C7F8F8010BE0FFF7B1
:101EF00009F80246D7F8F831D31A41F288329342F2
:101F000001D9032325E207F1A00302221A6007F199
:101F1000A0031B6893FAA3F207F19C031A6007F170
:101F2000980302221A6007F198031B6893FAA3F240
:101F300007F194031A6007F194031B68B3FA83F363
:101F4000DBB25B09DBB243F00203DBB2022B02D14E
:101F5000904B1B6A0DE007F1900302221A6007F113
:101F600090031B6893FAA3F207F18C031A60894B64
:101F70005B6A07F188020221116007F1880212688A
:101F800092FAA2F107F18402116007F1840212684B
:101F9000B2FA82F2D2B242F04002D2B202F01F0292
:101FA000012101FA02F21340002BA0D197F8FF3172
:101FB000012B05D1774BDB69764A23F08053D3613F
:101FC0003B1D1B68DB69002B00F0C281714B5B6815
:101FD00003F00C03082B00F09C813B1D1B68DB69A0
:101FE000022B40F0148107F180034FF080721A60D9
:101FF00007F180031B6893FAA3F207F17C031A60D0
:1020000007F17C031B68B3FA83F3DBB203F184535B
:1020100003F584139B001A4600231360FEF772FF3A
:10202000C7F8F80109E0FEF76DFF0246D7F8F8316E
:10203000D31A022B01D903238BE107F178034FF068
:1020400000721A6007F178031B6893FAA3F207F194
:1020500074031A6007F174031B68B3FA83F3DBB2ED
:102060005B09DBB243F00103DBB2012B02D1494B28
:102070001B681BE007F170034FF000721A6007F154
:1020800070031B6893FAA3F207F16C031A6007F15F
:1020900068034FF000721A6007F168031B6893FA37
:1020A000A3F207F164031A603A4B5B6A07F160021E
:1020B0004FF00071116007F16002126892FAA2F10C
:1020C00007F15C02116007F15C021268B2FA82F259
:1020D000D2B242F02002D2B202F01F02012101FA74
:1020E00002F21340002B9ED12A4B5B6823F474123A
:1020F0003B1D1B68596A3B1D1B681B6A0B43254926
:1021000013434B6007F158034FF080721A6007F1D8
:1021100058031B6893FAA3F207F154031A6007F1FE
:1021200054031B68B3FA83F3DBB203F1845303F562
:1021300084139B001A4601231360FEF7E3FEC7F8E1
:10214000F80109E0FEF7DEFE0246D7F8F831D31AAF
:10215000022B01D90323FCE007F150034FF000727A
:102160001A6007F150031B6893FAA3F207F14C03BE
:102170001A6007F14C031B68B3FA83F3DBB25B0907
:10218000DBB243F00103DBB2012B05D1014B1B682D
:102190001EE000BF0010024007F148034FF000723C
:1021A0001A6007F148031B6893FAA3F207F144038E
:1021B0001A6007F140034FF000721A6007F1400304
:1021C0001B6893FAA3F207F13C031A60634B5B6A46
:1021D00007F138024FF00071116007F13802126800
:1021E00092FAA2F107F13402116007F13402126889
:1021F000B2FA82F2D2B242F02002D2B202F01F0250
:10220000012101FA02F21340002B9BD0A0E007F15C
:1022100030034FF080721A6007F130031B6893FAA5
:10222000A3F207F12C031A6007F12C031B68B3FA21
:1022300083F3DBB203F1845303F584139B001A4646
:1022400000231360FEF75EFEC7F8F80109E0FEF711
:1022500059FE0246D7F8F831D31A022B01D90323CD
:1022600077E007F128034FF000721A6007F12803A6
:102270001B6893FAA3F207F124031A6007F1240301
:102280001B68B3FA83F3DBB25B09DBB243F00103F3
:10229000DBB2012B02D1314B1B681BE007F120039D
:1022A0004FF000721A6007F120031B6893FAA3F243
:1022B00007F11C031A6007F118034FF000721A604F
:1022C00007F118031B6893FAA3F207F114031A60CD
:1022D000224B5B6A07F110024FF00071116007F1A9
:1022E0001002126892FAA2F107F10C02116007F1D4
:1022F0000C021268B2FA82F2D2B242F02002D2B2DA
:1023000002F01F02012101FA02F21340002B9ED1BC
:102310001EE03B1D1B68DB69012B01D1012318E086
:102320000E4B5B68C7F8F431D7F8F43103F4803210
:102330003B1D1B681B6A9A4208D1D7F8F43103F49D
:1023400070123B1D1B685B6A9A4201D0012300E0BA
:102350000023184607F50077BD4680BD00100240F7
:1023600080B59EB000AF7860396000237B677B68E2
:10237000002B01D1012362E1904B1B6803F007039E
:102380003A689A4210D98D4B1B6823F007028B499B
:102390003B6813430B60894B1B6803F007033A68E3
:1023A0009A4201D001234AE17B681B6803F00203D3
:1023B000002B08D0824B5B6823F0F0027B689B689F
:1023C0007F4913434B607B681B6803F00103002BBC
:1023D00000F0DC807B685B68012B3CD14FF400335C
:1023E0003B673B6F93FAA3F3FB66FB6EB3FA83F391
:1023F000DBB25B09DBB243F00103DBB2012B02D19C
:102400006F4B1B680FE04FF40033BB66BB6E93FA53
:10241000A3F37B664FF400333B663B6E93FAA3F362
:10242000FB65674B5B6A4FF40032BA65BA6D92FA8E
:10243000A2F27A657A6DB2FA82F2D2B242F020024A
:10244000D2B202F01F02012101FA02F21340002B66
:102450007BD10123F3E07B685B68022B3CD14FF01A
:1024600000733B653B6D93FAA3F3FB64FB6CB3FA1B
:1024700083F3DBB25B09DBB243F00103DBB2012B78
:1024800002D14F4B1B680FE04FF00073BB64BB6C75
:1024900093FAA3F37B644FF000733B643B6C93FAB5
:1024A000A3F3FB63464B5B6A4FF00072BA63BA6BEF
:1024B00092FAA2F27A637A6BB2FA82F2D2B242F064
:1024C0002002D2B202F01F02012101FA02F21340EF
:1024D000002B3AD10123B2E002233B633B6B93FA1A
:1024E000A3F3FB62FB6AB3FA83F3DBB25B09DBB2F3
:1024F00043F00103DBB2012B02D1314B1B680DE02D
:102500000223BB62BB6A93FAA3F37B6202233B62A2
:102510003B6A93FAA3F3FB61294B5B6A0222BA611F
:10252000BA6992FAA2F27A617A69B2FA82F2D2B206
:1025300042F02002D2B202F01F02012101FA02F29F
:102540001340002B01D1012379E01D4B5B6823F080
:1025500003027B685B681A4913434B60FEF7D2FCA9
:1025600078670AE0FEF7CEFC02467B6FD31A41F291
:102570008832934201D9032361E0114B5B6803F079
:102580000C027B685B689B009A42EBD10B4B1B688B
:1025900003F007033A689A4214D2084B1B6823F0F1
:1025A000070206493B6813430B60044B1B6803F0AA
:1025B00007033A689A4205D0012340E00020024018
:1025C000001002407B681B6803F00403002B08D056
:1025D0001D4B5B6823F4E0627B68DB681A49134398
:1025E0004B607B681B6803F00803002B09D0164B77
:1025F0005B6823F460527B681B69DB00124913435C
:102600004B6000F029F801460F4B5B6803F0F003C4
:10261000F0223A613A6992FAA2F2FA60FA68B2FAE2
:1026200082F2D2B2D340094AD35C21FA03F3084ABA
:102630001360084B1B681846FEF720FC0023184661
:102640007837BD4680BD00BF001002403C600008E6
:10265000000000200400002080B48BB000AF0023F5
:10266000FB610023BB6100237B6200237B610023AD
:102670003B62294B5B68FB61FB6903F00C03042B95
:1026800002D0082B03D03CE0244B3B623CE0FB69CA
:1026900003F470134FF47012BA60BA6892FAA2F29F
:1026A0007A607A68B2FA82F2D2B2D3401C4AD35C22
:1026B0007B61194BDB6A03F00F030F223A613A6921
:1026C00092FAA2F2FA60FA68B2FA82F2D2B2D34077
:1026D000144AD35CBB61FB6903F48033002B08D040
:1026E0000E4ABB69B2FBF3F27B6902FB03F37B6228
:1026F00004E07B690C4A02FB03F37B627B6A3B626A
:1027000002E0064B3B6200BF3B6A18462C37BD46D1
:102710005DF8047B704700BF0010024000127A0091
:10272000546000086460000800093D0080B400AFF8
:10273000034B1B681846BD465DF8047B704700BF1D
:102740000000002080B582B000AFFFF7EFFF014628
:102750000B4B5B6803F4E0634FF4E0627A607A68E5
:1027600092FAA2F23A603A68B2FA82F2D2B2D34056
:10277000044AD35C21FA03F318460837BD4680BDEE
:10278000001002404C60000880B582B000AFFFF737
:10279000CDFF01460B4B5B6803F460534FF460526E
:1027A0007A607A6892FAA2F23A603A68B2FA82F2F1
:1027B000D2B2D340044AD35C21FA03F31846083757
:1027C000BD4680BD001002404C60000880B592B04C
:1027D00000AF786000233B640023FB63002387F88D
:1027E00047307B681B6803F48033002B00F0D480F3
:1027F0004E4BDB6903F08053002B0ED14B4BDB6952
:102800004A4A43F08053D361484BDB6903F080535D
:10281000BB60BB68012387F84730454B1B6803F456
:102820008073002B18D1424B1B68414A43F48073DC
:102830001360FEF767FB386408E0FEF763FB0246AF
:102840003B6CD31A642B01D9032369E1384B1B6815
:1028500003F48073002BF0D0344B1B6A03F44073F5
:10286000FB63FB6B002B00F084807B685B6803F4E8
:102870004073FA6B9A427CD02C4B1B6A23F4407352
:10288000FB634FF480333B633B6B93FAA3F3FB6230
:10289000FB6AB3FA83F3DBB21A46264B13449B0060
:1028A0001A46012313604FF48033BB63BB6B93FA6A
:1028B000A3F37B637B6BB3FA83F3DBB21A461D4B46
:1028C00013449B001A4600231360184AFB6B1362E3
:1028D000FB6B03F00103002B4BD0FEF713FB3864B6
:1028E0000AE0FEF70FFB02463B6CD31A41F2883236
:1028F000934201D9032313E10223BB62BB6A93FA1B
:10290000A3F37B6202233B623B6A93FAA3F3FB616E
:10291000FB69B3FA83F3DBB25B09DBB243F002037A
:10292000DBB2022B08D1014B1B6A0DE00010024004
:1029300000700040008190100223BB61BB6993FAD4
:10294000A3F37B61784B5B6A02223A613A6992FA9F
:10295000A2F2FA60FA68B2FA82F2D2B242F040020F
:10296000D2B202F01F02012101FA02F21340002B41
:10297000B7D06D4B1B6A23F440727B685B686A4971
:1029800013430B6297F84730012B05D1664BDB6987
:10299000654A23F08053D3617B681B6803F0010311
:1029A000002B08D0604B1B6B23F003027B689B68F5
:1029B0005D4913430B637B681B6803F00203002B24
:1029C00008D0594B1B6B23F440327B68DB685649B7
:1029D00013430B637B681B6803F00403002B08D0D0
:1029E000514B1B6B23F440227B681B694E491343F8
:1029F0000B637B681B6803F02003002B08D04A4B55
:102A00001B6B23F010027B68DB69474913430B63A0
:102A10007B681B6803F40033002B08D0424B5B68D3
:102A200023F480027B689B6B3F4913434B607B68B8
:102A30001B6803F04003002B08D03B4B1B6B23F0BB
:102A400020027B681B6A384913430B637B681B6851
:102A500003F00803002B08D0334B1B6B23F4401208
:102A60007B685B69304913430B637B681B6803F029
:102A70001003002B08D02C4B1B6B23F440027B6807
:102A80009B69294913430B637B681B6803F400733C
:102A9000002B08D0244B5B6823F400027B68DB6AC0
:102AA000214913434B607B681B6803F08003002BB4
:102AB00008D01D4BDB6A23F4F8727B685B6A1A4905
:102AC0001343CB627B681B6803F48073002B08D030
:102AD000154BDB6A23F478527B689B6A12491343D7
:102AE000CB627B681B6803F48053002B08D00E4B2D
:102AF0001B6B23F480727B681B6B0B4913430B63C6
:102B00007B681B6803F40053002B08D0064B1B6B3B
:102B100023F400727B685B6B034913430B63002350
:102B200018464837BD4680BD0010024080B584B0CD
:102B300000AF78600123FB737B68002B01D1012378
:102B400073E07B685B7FDBB2002B05D17B680022E2
:102B50001A777868FDF79CFE7B6802225A777B68BB
:102B60001B68DB6803F01003102B55D07B681B68D3
:102B7000CA225A627B681B6853225A62786800F046
:102B80007FF80346FB73FB7B002B2CD17B681B6813
:102B90009B687A68126823F4E00323F04003936093
:102BA0007B681B6899687B685A687B681B691A4355
:102BB0007B685B691A437B681B680A439A607B6881
:102BC0001B687A68D2681A617B681B6819697B6820
:102BD0009B681A047B681B680A431A61786800F0D6
:102BE00086F80346FB73FB7B002B10D17B681B68C8
:102BF0001A6C7B681B6822F480221A647B681B684D
:102C0000196C7B689A697B681B680A431A647B6845
:102C10001B68FF225A6201E00023FB73FB7B002B41
:102C200002D17B6801225A77FB7B18461037BD46DC
:102C300080BD000080B584B000AF78600023FB60E9
:102C40007B681B680D4ADA60FEF75CF9F86009E002
:102C5000FEF758F90246FB68D31AB3F57A7F01D91B
:102C6000032307E07B681B68DB6803F02003002B6D
:102C7000EED0002318461037BD4680BD5FFF01002F
:102C800080B584B000AF78600023BB600023FB7385
:102C90007B681B68DB6803F04003002B22D17B6854
:102CA0001B68DA687B681B6842F08002DA60FEF716
:102CB00029F9B8600CE0FEF725F90246BB68D31A83
:102CC000B3F57A7F04D97B6804225A770123FB731A
:102CD0007B681B68DB6803F04003002B02D1FB7BA1
:102CE000012BE8D1FB7B18461037BD4680BD80B56F
:102CF00084B000AF78600023FB737B681B68DA68E0
:102D00007B681B6822F08002DA607B681B689B6826
:102D100003F02003002B0AD17868FFF78BFF0346EE
:102D2000002B04D07B6804225A770123FB73FB7BC2
:102D300018461037BD4680BD80B582B000AF7860C0
:102D40007B68002B01D1012349E07B6893F83D307B
:102D5000DBB2002B06D17B68002283F83C20786828
:102D6000FDF7BCFD7B68022283F83D207B681A6872
:102D70007B6804331946104600F0B0FA7B680122E4
:102D800083F848207B68012283F83E207B6801227B
:102D900083F83F207B68012283F840207B68012272
:102DA00083F841207B68012283F842207B6801225E
:102DB00083F843207B68012283F844207B6801224A
:102DC00083F845207B68012283F846207B68012236
:102DD00083F847207B68012283F83D2000231846B2
:102DE0000837BD4680BD000080B485B000AF786074
:102DF0007B6893F83D30DBB2012B01D001234AE020
:102E00007B68022283F83D207B681B68DA687B6858
:102E10001B6842F00102DA607B681B68214A93421A
:102E200018D07B681B68B3F1804F13D07B681B6898
:102E30001D4A93420ED07B681B681C4A934209D0FE
:102E40007B681B681A4A934204D07B681B68194A46
:102E5000934215D17B681B689A68174B1340FB603F
:102E6000FB68062B15D0FB68B3F5803F11D07B685B
:102E70001B681A687B681B6842F001021A6008E050
:102E80007B681B681A687B681B6842F001021A6045
:102E900000E000BF002318461437BD465DF8047BF0
:102EA000704700BF002C01400004004000080040B3
:102EB00000340140004001400700010080B582B0AD
:102EC00000AF78607B681B681B6903F00203022B6C
:102ED00022D17B681B68DB6803F00203022B1BD145
:102EE0007B681B686FF002021A617B6801221A7707
:102EF0007B681B689B6903F00303002B03D0786891
:102F000000F0CEF905E0786800F0C0F9786800F0CC
:102F1000D1F97B6800221A777B681B681B6903F074
:102F20000403042B22D17B681B68DB6803F00403D5
:102F3000042B1BD17B681B686FF004021A617B684D
:102F400002221A777B681B689B6903F44073002B8D
:102F500003D0786800F0A4F905E0786800F096F9ED
:102F6000786800F0A7F97B6800221A777B681B68F5
:102F70001B6903F00803082B22D17B681B68DB6800
:102F800003F00803082B1BD17B681B686FF0080255
:102F90001A617B6804221A777B681B68DB6903F07F
:102FA0000303002B03D0786800F07AF905E0786815
:102FB00000F06CF9786800F07DF97B6800221A77E0
:102FC0007B681B681B6903F01003102B22D17B6800
:102FD0001B68DB6803F01003102B1BD17B681B6898
:102FE0006FF010021A617B6808221A777B681B68F1
:102FF000DB6903F44073002B03D0786800F050F9CC
:1030000005E0786800F042F9786800F053F97B68D1
:1030100000221A777B681B681B6903F00103012BF0
:103020000ED17B681B68DB6803F00103012B07D11D
:103030007B681B686FF001021A617868FDF718F968
:103040007B681B681B6903F08003802B0ED17B68B3
:103050001B68DB6803F08003802B07D17B681B684B
:103060006FF080021A61786800F0ECFA7B681B68E8
:103070001B6903F48073B3F5807F0ED17B681B68F6
:10308000DB6803F08003802B07D17B681B686FF43B
:1030900080721A61786800F0DFFA7B681B681B6930
:1030A00003F04003402B0ED17B681B68DB6803F004
:1030B0004003402B07D17B681B686FF040021A6108
:1030C000786800F001F97B681B681B6903F0200336
:1030D000202B0ED17B681B68DB6803F02003202BBC
:1030E00007D17B681B686FF020021A61786800F0D6
:1030F0009FFA00BF0837BD4680BD80B584B000AFE1
:10310000786039600023FB737B6893F83C30012BB7
:1031100001D10223B6E07B68012283F83C207B6862
:10312000022283F83D207B681B689B68BB60BB68FC
:1031300023F4803323F07703BB60BB6823F47F4321
:10314000BB607B681B68BA689A603B681B68B3F514
:10315000005F3ED0B3F5005F00F28780B3F5805F7B
:1031600000F08680B3F5805F7FD8702B1AD0702B6B
:103170007BD8602B50D0602B77D8502B3CD0502B75
:1031800073D8402B58D0402B6FD8302B64D0302BC5
:103190006BD8202B60D0202B67D8002B5CD0102B55
:1031A0005AD062E07B6818683B6899683B685A6847
:1031B0003B68DB6800F09CF97B681B689B68BB6020
:1031C000BB6843F07703BB607B681B68BA689A6092
:1031D0004FE07B6818683B6899683B685A683B68B1
:1031E000DB6800F085F97B681B689A687B681B6860
:1031F00042F480429A603CE07B6818683B685968FA
:103200003B68DB681A4600F0F9F87B681B685021C0
:10321000184600F052F92CE07B6818683B68596842
:103220003B68DB681A4600F018F97B681B68602170
:10323000184600F042F91CE07B6818683B68596842
:103240003B68DB681A4600F0D9F87B681B684021B0
:10325000184600F032F90CE07B681A683B681B687E
:103260001946104600F029F903E00123FB7300E042
:1032700000BF7B68012283F83D207B68002283F831
:103280003C20FB7B18461037BD4680BD80B483B020
:1032900000AF786000BF0C37BD465DF8047B704717
:1032A00080B483B000AF786000BF0C37BD465DF8D6
:1032B000047B704780B483B000AF786000BF0C37E8
:1032C000BD465DF8047B704780B483B000AF786082
:1032D00000BF0C37BD465DF8047B704780B485B0F5
:1032E00000AF786039607B681B68FB607B683C4A94
:1032F00093420FD07B68B3F1804F0BD07B68394A83
:10330000934207D07B68384A934203D07B68374AA0
:10331000934208D1FB6823F07003FB603B685B6855
:10332000FA681343FB607B682D4A93421BD07B688D
:10333000B3F1804F17D07B682A4A934213D07B6841
:10334000294A93420FD07B68284A93420BD07B686E
:10335000274A934207D07B68264A934203D07B6872
:10336000254A934208D1FB6823F44073FB603B6815
:10337000DB68FA681343FB60FB6823F080023B685C
:103380005B691343FB607B68FA681A603B689A6864
:103390007B68DA623B681A687B689A627B68104ACD
:1033A00093420FD07B68114A93420BD07B68104A3E
:1033B000934207D07B680F4A934203D07B680E4A42
:1033C000934203D13B681A697B681A637B680122C8
:1033D0005A6100BF1437BD465DF8047B704700BFDB
:1033E000002C01400004004000080040003401406F
:1033F00000400140004401400048014080B487B0D3
:1034000000AFF860B9607A60FB681B6A7B61FB689B
:103410001B6A23F00102FB681A62FB689B693B612F
:103420003B6923F0F0033B617B681B013A6913435E
:103430003B617B6923F00A037B617A69BB681343B4
:103440007B61FB683A699A61FB687A691A6200BF1E
:103450001C37BD465DF8047B704780B487B000AF71
:10346000F860B9607A60FB681B6A23F01002FB68A1
:103470001A62FB689B697B61FB681B6A3B617B6925
:1034800023F470437B617B681B037A6913437B6180
:103490003B6923F0A0033B61BB681B013A691343FE
:1034A0003B61FB687A699A61FB683A691A6200BFFE
:1034B0001C37BD465DF8047B704780B485B000AF13
:1034C000786039607B689B68FB60FB6823F0700361
:1034D000FB603A68FB68134343F00703FB607B68BB
:1034E000FA689A6000BF1437BD465DF8047B7047E8
:1034F00080B487B000AFF860B9607A603B60FB6869
:103500009B687B617B6923F47F437B613B681A0284
:103510007B681A43BB6813437A6913437B61FB687A
:103520007A699A6000BF1C37BD465DF8047B70471E
:1035300080B485B000AF786039607B6893F83C3028
:10354000012B01D1022363E07B68012283F83C2038
:103550007B68022283F83D207B681B685B68FB6008
:103560007B681B689B68BB607B681B682B4A934227
:1035700004D07B681B682A4A934208D1FB6823F475
:103580007003FB603B685B68FA681343FB60FB6891
:1035900023F07003FB603B681B68FA681343FB6011
:1035A0007B681B68FA685A607B681B681B4A9342F9
:1035B00018D07B681B68B3F1804F13D07B681B6801
:1035C000184A93420ED07B681B68174A934209D071
:1035D0007B681B68124A934204D07B681B68134ABD
:1035E00093420CD1BB6823F08003BB603B689B68AF
:1035F000BA681343BB607B681B68BA689A607B68D3
:10360000012283F83D207B68002283F83C200023C0
:1036100018461437BD465DF8047B7047002C014006
:103620000034014000040040000800400040014018
:1036300080B483B000AF786000BF0C37BD465DF842
:10364000047B704780B483B000AF786000BF0C3754
:10365000BD465DF8047B704780B483B000AF7860EE
:1036600000BF0C37BD465DF8047B704780B582B063
:1036700000AF78607B68002B01D1012340E07B68BC
:10368000DB6F002B06D17B68002283F878207868F6
:10369000FDF748F97B682422DA677B681B681A68A3
:1036A0007B681B6822F001021A60786800F000FC59
:1036B0000346012B01D1012322E07B685B6A002BCA
:1036C00002D0786800F0C6FD7B681B685A687B688A
:1036D0001B6822F490425A607B681B689A687B687A
:1036E0001B6822F02A029A607B681B681A687B6854
:1036F0001B6842F001021A60786800F04DFE034634
:1037000018460837BD4680BD80B58AB002AFF86064
:10371000B9603B601346FB80FB68DB6F202B78D1E0
:10372000BB68002B02D0FB88002B01D1012371E084
:10373000FB680022C3F88420FB682122DA67FDF7CA
:10374000E1FB7861FB68FA88A3F85020FB68FA88EF
:10375000A3F85220FB689B68B3F5805F08D1FB6833
:103760001B69002B04D10023FB61BB68BB6103E034
:10377000BB68FB610023BB6130E03B6800937B6961
:1037800000228021F86800F0AFFE0346002B04D031
:10379000FB682022DA6703233CE0FB69002B0BD196
:1037A000BB691A88FB681B68C2F3080292B21A85CB
:1037B000BB690233BB6108E0FB691A78FB681B68D0
:1037C00092B21A85FB690133FB61FB68B3F8523092
:1037D0009BB2013B9AB2FB68A3F85220FB68B3F896
:1037E00052309BB2002BC8D13B6800937B6900220A
:1037F0004021F86800F078FE0346002B04D0FB68F7
:103800002022DA67032305E0FB682022DA67002321
:1038100000E0022318462037BD4680BD80B58AB03F
:1038200000AFF860B9601346FB80FB68D3F88030C6
:10383000202B32D1BB68002B02D0FB88002B01D19A
:1038400001232BE0FB6800221A66FB681B685B689B
:1038500003F40003002B18D0FB681B687B617B69B5
:1038600053E8003F3B613B6943F080637B62FB6848
:103870001B681A467B6A3B62FA61F9693A6A41E859
:103880000023BB61BB69002BE6D1FB881A46B968EF
:10389000F86800F091FE034600E00223184628373E
:1038A000BD4680BD80B5BAB000AF78607B681B684C
:1038B000DB69C7F8E4307B681B681B68C7F8E03039
:1038C0007B681B689B68C7F8DC30D7F8E42040F6BB
:1038D0000F031340C7F8D830D7F8D830002B15D1D4
:1038E000D7F8E43003F02003002B0FD0D7F8E030F6
:1038F00003F02003002B09D07B689B6E002B00F0A7
:10390000AB827B689B6E78689847A5E2D7F8D83081
:10391000002B00F01781D7F8DC3003F00103002BF7
:1039200006D1D7F8E020854B1340002B00F00A8128
:10393000D7F8E43003F00103002B11D0D7F8E030C2
:1039400003F48073002B0BD07B681B6801221A6282
:103950007B68D3F8843043F001027B68C3F884208D
:10396000D7F8E43003F00203002B11D0D7F8DC3095
:1039700003F00103002B0BD07B681B6802221A6244
:103980007B68D3F8843043F004027B68C3F884205A
:10399000D7F8E43003F00403002B11D0D7F8DC3063
:1039A00003F00103002B0BD07B681B6804221A6212
:1039B0007B68D3F8843043F002027B68C3F884202C
:1039C000D7F8E43003F00803002B17D0D7F8E03025
:1039D00003F02003002B05D1D7F8DC3003F00103FE
:1039E000002B0BD07B681B6808221A627B68D3F817
:1039F000843043F008027B68C3F88420D7F8E430B1
:103A000003F40063002B12D0D7F8E03003F080639A
:103A1000002B0CD07B681B684FF400621A627B6835
:103A2000D3F8843043F020027B68C3F884207B689D
:103A3000D3F88430002B00F01182D7F8E43003F083
:103A40002003002B0DD0D7F8E03003F02003002B2B
:103A500007D07B689B6E002B03D07B689B6E7868D9
:103A600098477B68D3F88430C7F8D4307B681B68EC
:103A70009B6803F04003402B05D0D7F8D43003F007
:103A80002803002B4FD0786800F04AFE7B681B6843
:103A90009B6803F04003402B41D17B681B680833CF
:103AA000C7F89C30D7F89C3053E8003FC7F89830EF
:103AB000D7F8983023F04003C7F8D0307B681B68F4
:103AC0000833D7F8D020C7F8A820C7F8A430D7F813
:103AD000A410D7F8A82041E80023C7F8A030D7F8F1
:103AE000A030002BD9D17B685B6F002B13D07B6893
:103AF0005B6F134A5A637B685B6F1846FDF758FB90
:103B00000346002B17D07B685B6F5B6B7A68526F44
:103B1000104698470FE0786800F0B4F90BE0786839
:103B200000F0B0F907E0786800F0ACF97B6800229B
:103B3000C3F8842092E100BF90E100BF200100049F
:103B4000E94700087B681B6E012B40F04B81D7F8DA
:103B5000E43003F01003002B00F04481D7F8E0308C
:103B600003F01003002B00F03D817B681B681022DE
:103B70001A627B681B689B6803F04003402B40F08F
:103B8000B5807B685B6F1B685B68A7F8BE30B7F8D1
:103B9000BE30002B00F064817B68B3F85830B7F872
:103BA000BE209A4280F05C817B68B7F8BE20A3F803
:103BB0005A207B685B6F9B69202B00F086807B68B6
:103BC0001B68C7F88830D7F8883053E8003FC7F83B
:103BD0008430D7F8843023F48073C7F8B8307B681A
:103BE0001B681A46D7F8B830C7F89430C7F8902049
:103BF000D7F89010D7F8942041E80023C7F88C300C
:103C0000D7F88C30002BDAD17B681B6808337B67D0
:103C10007B6F53E8003F3B673B6F23F00103C7F81E
:103C2000B4307B681B680833D7F8B420C7F880200D
:103C3000FB67F96FD7F8802041E80023BB67BB6FB3
:103C4000002BE1D17B681B6808333B663B6E53E871
:103C5000003FFB65FB6D23F04003C7F8B0307B6885
:103C60001B680833D7F8B020FA66BB66B96EFA6EE7
:103C700041E800237B667B6E002BE3D17B6820222A
:103C8000C3F880207B6800221A667B681B68FB648F
:103C9000FB6C53E8003FBB64BB6C23F01003C7F818
:103CA000AC307B681B681A46D7F8AC30BB657A65C8
:103CB000796DBA6D41E800233B653B6D002BE4D183
:103CC0007B685B6F1846FDF73AFA7B6802225A66FA
:103CD0007B68B3F858207B68B3F85A309BB2D31A8C
:103CE0009BB21946786800F0D7F8B9E07B68B3F862
:103CF00058207B68B3F85A309BB2D31AA7F8CE305D
:103D00007B68B3F85A309BB2002B00F0AB80B7F859
:103D1000CE30002B00F0A6807B681B68BB63BB6BBA
:103D200053E8003F7B637B6B23F49073C7F8C83084
:103D30007B681B681A46D7F8C8307B643A64396CD4
:103D40007A6C41E80023FB63FB6B002BE4D17B68BA
:103D50001B6808337B627B6A53E8003F3B623B6A27
:103D600023F00103C7F8C4307B681B680833D7F819
:103D7000C4203A63FB62F96A3A6B41E80023BB62F4
:103D8000BB6A002BE3D17B682022C3F880207B68CC
:103D900000221A667B6800229A667B681B683B617A
:103DA0003B6953E8003FFB60FB6823F01003C7F852
:103DB000C0307B681B681A46D7F8C030FB61BA6117
:103DC000B969FA6941E800237B617B69002BE4D182
:103DD0007B6802225A66B7F8CE301946786800F040
:103DE0005BF83FE0D7F8E43003F48013002B0ED0EB
:103DF000D7F8DC3003F48003002B08D07B681B6805
:103E00004FF480121A62786800F0D6FE2DE0D7F8E1
:103E1000E43003F08003002B0ED0D7F8E03003F03D
:103E20008003002B08D07B68DB6E002B1CD07B68E6
:103E3000DB6E7868984717E0D7F8E43003F040036A
:103E4000002B12D0D7F8E03003F04003002B0CD049
:103E5000786800F0DFFC08E000BF06E000BF04E087
:103E600000BF02E000BF00E000BFE837BD4680BDF4
:103E700080B483B000AF786000BF0C37BD465DF8FA
:103E8000047B704780B483B000AF786000BF0C370C
:103E9000BD465DF8047B704780B483B000AF7860A6
:103EA0000B467B8000BF0C37BD465DF8047B704736
:103EB00080B588B000AF78600023BB777B689A68D4
:103EC0007B681B691A437B685B691A437B68DB6903
:103ED00013437B617B681B681B6823F4164323F044
:103EE0000C037A68126879690B4313607B681B685E
:103EF0005B6823F440517B68DA687B681B680A437F
:103F00005A607B689B697B617B681B6A7A69134393
:103F10007B617B681B689B6823F430617B681B684E
:103F20007A690A439A607B681B68AD4A934220D144
:103F3000AC4B1B6B03F00303032B17D801A252F801
:103F400023F000BF553F0008613F0008673F0008AD
:103F50005B3F00080123FB77B5E00223FB77B2E06B
:103F60000423FB77AFE00823FB77ACE01023FB775B
:103F7000A9E07B681B689C4A934224D1994B1B6B38
:103F800003F44033B3F5403F11D0B3F5403F17D8A9
:103F9000B3F5003F11D0B3F5003F11D8002B03D08B
:103FA000B3F5803F06D00BE00023FB778BE00223C4
:103FB000FB7788E00423FB7785E00823FB7782E02A
:103FC0001023FB777FE07B681B68884A934224D1EB
:103FD000844B1B6B03F44023B3F5402F11D0B3F592
:103FE000402F17D8B3F5002F11D0B3F5002F11D8FB
:103FF000002B03D0B3F5802F06D00BE00023FB7716
:1040000061E00223FB775EE00423FB775BE008239B
:10401000FB7758E01023FB7755E07B681B68744AF8
:10402000934224D16F4B1B6B03F44013B3F5401F35
:1040300011D0B3F5401F17D8B3F5001F11D0B3F559
:10404000001F11D8002B03D0B3F5801F06D00BE062
:104050000023FB7737E00223FB7734E00423FB7770
:1040600031E00823FB772EE01023FB772BE07B6801
:104070001B68604A934224D15A4B1B6B03F44003E4
:10408000B3F5400F11D0B3F5400F17D8B3F5000FBB
:1040900011D0B3F5000F11D8002B03D0B3F5800F6A
:1040A00006D00BE00023FB770DE00223FB770AE04C
:1040B0000423FB7707E00823FB7704E01023FB775A
:1040C00001E01023FB777B68DB69B3F5004F5BD120
:1040D000FB7F082B27D801A252F823F001410008EA
:1040E0000941000811410008274100081741000854
:1040F0002741000827410008274100081F41000808
:10410000FEF720FBB86113E0FEF73EFBB8610FE05D
:10411000394BBB610CE0FEF79FFAB86108E04FF441
:104120000043BB6104E00023BB610123BB7700BFF8
:10413000BB69002B00F08380BB695A007B685B6819
:104140005B081A447B685B68B2FBF3F33B613B6935
:104150000F2B16D93B69B3F5803F12D23B699BB256
:1041600023F00F03FB813B695B089BB203F007035D
:104170009AB2FB891343FB817B681B68FA89DA607A
:104180005DE00123BB775AE0FB7F082B36D801A204
:1041900052F823F0B9410008C1410008C9410008A4
:1041A000FD410008CF410008FD410008FD41000825
:1041B000FD410008D7410008FEF7C4FAB86122E0CB
:1041C000FEF7E2FAB8611EE00B4BBB611BE0FEF7A5
:1041D00043FAB86117E04FF40043BB6113E000BF3E
:1041E00000380140001002400044004000480040F8
:1041F000004C00400050004000127A000023BB61D8
:104200000123BB7700BFBB69002B18D07B685B68BC
:104210005A08BB691A447B685B68B2FBF3F33B61E5
:104220003B690F2B09D93B69B3F5803F05D23B6948
:104230009AB27B681B68DA6001E00123BB777B6878
:1042400000229A667B680022DA66BB7F1846203718
:10425000BD4680BD80B483B000AF78607B685B6A88
:1042600003F00103002B0AD07B681B685B6823F412
:1042700000317B689A6A7B681B680A435A607B68D6
:104280005B6A03F00203002B0AD07B681B685B6843
:1042900023F480317B68DA6A7B681B680A435A60C2
:1042A0007B685B6A03F00403002B0AD07B681B6801
:1042B0005B6823F480217B681A6B7B681B680A4368
:1042C0005A607B685B6A03F00803002B0AD07B68A6
:1042D0001B685B6823F400417B685A6B7B681B6832
:1042E0000A435A607B685B6A03F01003002B0AD014
:1042F0007B681B689B6823F480517B689A6B7B68A2
:104300001B680A439A607B685B6A03F02003002BFA
:104310000AD07B681B689B6823F400517B68DA6BCA
:104320007B681B680A439A607B685B6A03F0400302
:10433000002B1AD07B681B685B6823F480117B68B4
:104340001A6C7B681B680A435A607B681B6CB3F568
:10435000801F0AD17B681B685B6823F4C0017B68FF
:104360005A6C7B681B680A435A607B685B6A03F07F
:104370008003002B0AD07B681B685B6823F4002154
:104380007B689A6C7B681B680A435A6000BF0C37D5
:10439000BD465DF8047B704780B598B002AF786089
:1043A0007B680022C3F88420FCF7ACFD78657B684D
:1043B0001B681B6803F00803082B2ED16FF07E43A7
:1043C00000937B6D00224FF40011786800F08CF8A8
:1043D0000346002B21D07B681B68BB63BB6B53E893
:1043E000003F7B637B6B23F080033B657B681B682E
:1043F0001A463B6D7B643A64396C7A6C41E8002361
:10440000FB63FB6B002BE6D17B682022DA677B68BD
:10441000002283F87820032362E07B681B681B6816
:1044200003F00403042B49D16FF07E4300937B6DAE
:1044300000224FF48001786800F056F80346002B04
:104440003CD07B681B687B627B6A53E8003F3B6221
:104450003B6A23F49073FB647B681B681A46FB6C11
:104460003B63FA62F96A3A6B41E80023BB62BB6ABC
:10447000002BE6D17B681B6808333B613B6953E83E
:10448000003FFB60FB6823F00103BB647B681B6893
:104490000833BA6CFA61BB61B969FA6941E8002373
:1044A0007B617B69002BE5D17B682022C3F88020EB
:1044B0007B68002283F87820032311E07B682022A8
:1044C000DA677B682022C3F880207B6800221A66A6
:1044D0007B6800225A667B68002283F878200023DC
:1044E00018465837BD4680BD80B584B000AFF8602F
:1044F000B9603B601346FB7149E0BB69B3F1FF3F14
:1045000045D0FCF7FFFC02463B68D31ABA699A42D1
:1045100002D3BB69002B01D1032348E0FB681B6871
:104520001B6803F00403002B31D0FB681B68DB69B8
:1045300003F00803082B10D1FB681B6808221A62DD
:10454000F86800F0EDF8FB680822C3F88420FB68E7
:10455000002283F87820012329E0FB681B68DB69CF
:1045600003F40063B3F5006F11D1FB681B684FF4CF
:1045700000621A62F86800F0D3F8FB682022C3F8E2
:104580008420FB68002283F8782003230FE0FB6877
:104590001B68DA69BB681340BA689A420CBF0123F2
:1045A0000023DBB21A46FB799A42A6D000231846B4
:1045B0001037BD4680BD000080B497B000AFF860F2
:1045C000B9601346FB80FB68BA685A65FB68FA88D5
:1045D000A3F85820FB68FA88A3F85A20FB68002249
:1045E0009A66FB689B68B3F5805F0ED1FB681B6918
:1045F000002B05D1FB6840F2FF12A3F85C201AE003
:10460000FB68FF22A3F85C2015E0FB689B68002B89
:104610000DD1FB681B69002B04D1FB68FF22A3F8B6
:104620005C2008E0FB687F22A3F85C2003E0FB68C5
:104630000022A3F85C20FB680022C3F88420FB68FA
:104640002222C3F88020FB681B680833FB63FB6BE6
:1046500053E8003FBB63BB6B43F001037B65FB6822
:104660001B6808337A6DBA647B64796CBA6C41E874
:1046700000233B643B6C002BE5D1FB689B68B3F5E2
:10468000805F07D1FB681B69002B03D1FB68224ABE
:104690009A6602E0FB68214A9A66FB681B69002B58
:1046A00019D0FB681B68BB62BB6A53E8003F7B62A2
:1046B0007B6A43F49073FB64FB681B681A46FB6CCF
:1046C0007B633A63396B7A6B41E80023FB62FB6AD8
:1046D000002BE6D118E0FB681B687B617B6953E81F
:1046E000003F3B613B6943F020033B65FB681B686F
:1046F0001A463B6D3B62FA61F9693A6A41E8002368
:10470000BB61BB69002BE6D1002318465C37BD4670
:104710005DF8047B704700BF114A00086948000833
:1047200080B495B000AF78607B681B687B637B6B5F
:1047300053E8003F3B633B6B23F49073FB647B685F
:104740001B681A46FB6C3B64FA63F96B3A6C41E8F0
:104750000023BB63BB6B002BE6D17B681B6808336F
:104760003B623B6A53E8003FFB61FB6923F00103B6
:10477000BB647B681B680833BA6CFA62BB62B96AB7
:10478000FA6A41E800237B627B6A002BE5D17B68F3
:104790001B6E012B18D17B681B68FB60FB6853E81C
:1047A000003FBB60BB6823F010037B647B681B6821
:1047B0001A467B6CBB617A617969BA6941E800236A
:1047C0003B613B69002BE6D17B682022C3F8802047
:1047D0007B6800221A667B6800229A6600BF543705
:1047E000BD465DF8047B704780B584B000AF78604B
:1047F0007B685B6AFB60FB680022A3F85A20FB68B9
:104800000022A3F85220F868FFF73CFB00BF1037E6
:10481000BD4680BD80B588B000AF78607B681B68FE
:10482000FB60FB6853E8003FBB60BB6823F04003BC
:10483000FB617B681B681A46FB69BB617A61796919
:10484000BA6941E800233B613B69002BE6D17B68F4
:104850002022DA677B680022DA667868FFF708FBB7
:1048600000BF2037BD4680BD80B59CB000AF7860EA
:104870007B68B3F85C30A7F86E307B68D3F8803083
:10488000222B40F0B9807B681B689B8CA7F86C30AA
:10489000B7F86C30D9B2B7F86E30DAB27B685B6DBE
:1048A0000A40D2B21A707B685B6D5A1C7B685A65ED
:1048B0007B68B3F85A309BB2013B9AB27B68A3F88D
:1048C0005A207B68B3F85A309BB2002B40F09C8092
:1048D0007B681B68FB64FB6C53E8003FBB64BB6CEC
:1048E00023F49073BB667B681B681A46BB6EBB657E
:1048F0007A65796DBA6D41E800233B653B6D002B0D
:10490000E6D17B681B680833BB63BB6B53E8003F91
:104910007B637B6B23F001037B667B681B6808333A
:104920007A6E7A643B64396C7A6C41E80023FB63ED
:10493000FB6B002BE5D17B682022C3F880207B68CD
:1049400000229A667B6800225A667B681B685B6857
:1049500003F40003002B18D07B681B687B627B6A22
:1049600053E8003F3B623B6A23F080633B667B6811
:104970001B681A463B6E3B63FA62F96A3A6B41E880
:104980000023BB62BB6A002BE6D17B681B6E012B48
:104990002ED17B6800221A667B681B683B613B69ED
:1049A00053E8003FFB60FB6823F01003FB657B6866
:1049B0001B681A46FB6DFB61BA61B969FA6941E887
:1049C00000237B617B69002BE6D17B681B68DB6978
:1049D00003F01003102B03D17B681B6810221A62AE
:1049E0007B68B3F8583019467868FFF755FA0BE042
:1049F0007868FBF74DFC07E07B681B689A697B6869
:104A00001B6842F008029A6100BF7037BD4680BD46
:104A100080B59CB000AF78607B68B3F85C30A7F8D5
:104A20006E307B68D3F88030222B40F0B9807B68F1
:104A30001B689B8CA7F86C307B685B6DBB66B7F816
:104A40006C20B7F86E3013409AB2BB6E1A807B6848
:104A50005B6D9A1C7B685A657B68B3F85A309BB2D1
:104A6000013B9AB27B68A3F85A207B68B3F85A30AE
:104A70009BB2002B40F09C807B681B68BB64BB6CC6
:104A800053E8003F7B647B6C23F490737B667B6808
:104A90001B681A467B6E7B653A65396D7A6D41E815
:104AA0000023FB64FB6C002BE6D17B681B6808339A
:104AB0007B637B6B53E8003F3B633B6B23F001035D
:104AC0003B667B681B6808333A6E3A64FB63F96B9C
:104AD0003A6C41E80023BB63BB6B002BE5D17B68DC
:104AE0002022C3F880207B6800229A667B6800221F
:104AF0005A667B681B685B6803F40003002B18D0C0
:104B00007B681B683B623B6A53E8003FFB61FB69C3
:104B100023F08063FB657B681B681A46FB6DFB62B4
:104B2000BA62B96AFA6A41E800237B627B6A002BA9
:104B3000E6D17B681B6E012B2ED17B6800221A66A2
:104B40007B681B68FB60FB6853E8003FBB60BB6889
:104B500023F01003BB657B681B681A46BB6DBB6105
:104B60007A617969BA6941E800233B613B69002BAE
:104B7000E6D17B681B68DB6903F01003102B03D1BF
:104B80007B681B6810221A627B68B3F8583019469C
:104B90007868FFF781F90BE07868FBF779FB07E0AD
:104BA0007B681B689A697B681B6842F008029A61FF
:104BB00000BF7037BD4680BD80B483B000AF786061
:104BC00000BF0C37BD465DF8047B704780B582B0EE
:104BD00000AF786020220021786800F081FA7B68BD
:104BE00000221A717B6800221A767B6800229A6084
:104BF00079684FF000024FF00003C1E904237B689D
:104C000000221A6000BF0837BD4680BD90B58DB048
:104C100004AF3B461846FFF7D9FF04233B716C46AF
:104C200007F110030FCB84E80F003B460FCB00F0D9
:104C3000D5F800BF2437BD4690BD0000B0B485B0A4
:104C400000AF78600023FB737FE0FB7B444A5B018D
:104C5000134404331B78002B7CD0FB7B404A5B0160
:104C6000134404331B78052B6CD1FB7B3C4A5B015E
:104C7000134408331B681B68002B4ED0FB7B384A5B
:104C80005B01134408331B68002B46D0F97B344A80
:104C90004B0113441033D3E90023541C43F10005A6
:104CA0002F4A4B0113441033C3E900452C4A4B01F2
:104CB00013441033D3E90001FB7B294A5B01134401
:104CC00008331B681B68274AA2FB03239B091A466B
:104CD0004FF00003994208BF904233D3FB7B204A38
:104CE0005B01134418331B7883F00103DBB2002B04
:104CF00006D0FB7B1A4A5B011344183301221A7059
:104D0000FB7B174A5B01134403F110014FF00002D3
:104D10004FF00003C1E9002314E0FB7B104A5B0164
:104D2000134408331B681B68002B0BD1FB7B0C4A18
:104D30005B01134403F110014FF000024FF0000338
:104D4000C1E90023FB7B0133FB73FB7B132B7FF655
:104D50007CAF00E000BF1437BD46B0BC704700BF59
:104D600058070020D34D621080B582B000AF0023F9
:104D7000FB7128E0FB79184A5B01134404331B786C
:104D8000002B24D0FB79144A5B01134418331B78A1
:104D9000002B15D0FB79104A5B01134404331B78B8
:104DA000052B0DD1FB790C4A5B0113441B680020D5
:104DB0009847FB79084A5B011344183300221A70A4
:104DC000FB790133FB71FB79132BD3D900E000BFD2
:104DD0000837BD4680BD00BF5807002084B0B0B57D
:104DE00082B000AF07F1180484E80F000023FB71C4
:104DF00020E0FB79154A5B01134404331B78002B38
:104E000015D1FB795B01114A13441846FFF7DEFE0A
:104E1000FB790E4A5B0113441D4607F118040FCCC1
:104E20000FC594E80F0085E80F00012306E0FB7929
:104E30000133FB71FB79132BDBD9002318460837AC
:104E4000BD46BDE8B04004B0704700BF5807002021
:104E500080B584B000AF78600B46FB700023FB7315
:104E600024E0FB7B154A5B01134404331B78002BC1
:104E700020D0FB7B114A5B01134404331B78012BC8
:104E800011D1FB7B0D4A5B01134408331B681B687F
:104E90007A689A4207D1FB7B084A5B0113441B687E
:104EA000FA1C10469847FB7B0133FB73FB7B132BEB
:104EB000D7D900E000BF1037BD4680BD580700209D
:104EC00080B582B000AF7860124B1B68002B17D002
:104ED000114800F00DF900BFFCF714F802460D4B25
:104EE0001B68D31A2E220D490D4800F001F90D4818
:104EF00000F0FEF8FCF706F80346064A136004E0EB
:104F0000FCF700F80346034A136000BF0837BD46AC
:104F100080BD00BF90000020DC5F000874600008C6
:104F2000E45F00080460000880B582B000AF7860DC
:104F30000E4B1B8BB3F5C77F0BD80C4B1B8B5A1C2E
:104F400091B20A4A118319467B681A78074B0B44C1
:104F50009A76FBF7D7FF03461A464FF00003034942
:104F6000C1E96C2300BF0837BD4680BDD8090020C9
:104F700080B500AF144B1B8B012B22D9FBF7C2FF6E
:104F80000146114BD3E96C231346CB1A002BB8BF53
:104F90005B42962B15DD0D4800F0AAF800BF0C4BC4
:104FA00048220C490C4800F0A3F80C4800F0A0F887
:104FB0004FF4C8720021064800F092F8024B00221C
:104FC0001A8300BF80BD00BFD80900200C60000814
:104FD000F2090020806000081460000804600008E6
:104FE00090B595B004AF4FF4E4720021204800F072
:104FF00077F81F4B41F27072C3F8B82107F1200314
:105000001846FFF7E3FD052387F82430194BBB62F0
:10501000194B3B626C4607F130030FCB84E80F005D
:1050200007F120030FCBFFF7D9FE114B134A1A608B
:105030003B461846FFF7CAFD01233B710C4BBB6092
:105040000F4B3B606C4607F110030FCB84E80F0059
:105050003B460FCBFFF7C2FE054B0A4AC3F8BC2103
:10506000034B094AC3F8C02100BF4437BD4690BD79
:10507000D8090020900B0020C14E000800380140E4
:10508000294F0008E14F0008714F0008014B1868D4
:10509000704700BF0C00002070B50D4D0D4C641B17
:1050A000A4100026A64209D10B4D0C4C00F076FF4F
:1050B000641BA4100026A64205D170BD55F8043B20
:1050C00098470136EEE755F8043B98470136F2E77A
:1050D0002C6100082C6100082C6100083061000878
:1050E00002440346934200D1704703F8011BF9E7DD
:1050F0000FB40A4B13B51C6824B1A36913B9204639
:1051000000F0E8F905AB049AA1680193204600F08D
:10511000B9FB02B0BDE8104004B070470C0000209D
:10512000F8B50E461446054618B183690BB900F070
:10513000D1F9214B9C422BD16C68A369A360A38950
:105140001A072FD523696BB323692068C01A6369D6
:10515000F6B28342374604DC2146284600F026F9A1
:1051600030BBA368013BA36023685A1C22601E70F9
:1051700063690130834204D0A389DB0706D50A2E78
:1051800004D12146284600F011F988B93846F8BD07
:105190000A4B9C4201D1AC68CFE7094B9C4208BF47
:1051A000EC68CAE72146284600F00CF80028CBD06E
:1051B0004FF0FF37EAE700BFB8600008D86000088A
:1051C00098600008324B70B51D6806460C4625B144
:1051D000AB6913B9284600F07DF92E4B9C420FD1E4
:1051E0006C68A389B4F90C2019072CD4DD0611D4FE
:1051F0000923336042F04003A3814FF0FF303EE0CB
:10520000254B9C4201D1AC68EBE7244B9C4208BF84
:10521000EC68E6E7580712D5616B41B104F144032D
:10522000994202D0304600F059FA00236363A38903
:1052300023F02403A3810023636023692360A389EF
:1052400043F00803A38123694BB9A38903F42073B6
:10525000B3F5007F03D02146304600F0FFF9A08966
:10526000B4F90C2010F001030AD00023A360636995
:105270005B42A361236943B910F08000BAD170BDCD
:10528000810758BF6369A360F4E70020F7E700BF18
:105290000C000020B8600008D86000089860000882
:1052A0008A892DE9F041054610070C4658D44B6811
:1052B000002B05DC0B6C002B02DC0020BDE8F0812C
:1052C000E66A002EF9D0002312F480522F682B607A
:1052D00032D0606DA3895A0705D56368C01A636B25
:1052E0000BB1236CC01A00230246E66A216A2846E5
:1052F000B047431CA38906D129681D292CD82A4A06
:10530000CA40D60728D500226260D90422692260EB
:1053100004D5421C01D12B6803B96065616B2F6015
:105320000029CAD004F14403994202D0284600F073
:10533000D5F900206063C1E7216A01232846B04700
:10534000411CC7D12B68002BC4D01D2B01D0162BBC
:1053500001D12F60B1E7A38943F04003A381ADE7FA
:105360000F69002FA9D093070E6808BF4B690F6023
:1053700018BF0023A6EB07088B60B8F1000F9CDD77
:10538000216AA66A43463A462846B047002806DC0A
:10539000A38943F04003A3814FF0FF308EE7074419
:1053A000A8EB0008E9E700BF0100402038B50B6911
:1053B00005460C4613B90025284638BD18B1836947
:1053C0000BB900F087F8144B9C421BD16C68B4F900
:1053D0000C30002BEFD0626ED00704D4990502D4B4
:1053E000A06D00F015F928462146FFF759FF636EBE
:1053F000DA070546E0D4A3899B05DDD4A06D00F053
:1054000008F9D9E7054B9C4201D1AC68DFE7044BB2
:105410009C4208BFEC68DAE7B8600008D860000872
:1054200098600008002310B50446C0E90033C0E9C5
:105430000433836081814366C281836119460822F7
:105440005C30FFF74DFE054B6362054BA362054BD5
:10545000E362054B2462236310BD00BF2D5E00088C
:105460004F5E0008875E0008AB5E0008014900F04F
:10547000AFB800BFAD53000870B54A1E682555434C
:105480000E4605F1740100F079F9044640B100219F
:10549000C0E900160C30A06005F16802FFF720FE9D
:1054A000204670BD014800F0B3B800BFA80B002033
:1054B000014800F0AEB800BFA80B0020014800F082
:1054C000A7B800BFA30B0020014800F0A2B800BF9E
:1054D000A30B002010B50446FFF7F0FFA3691BB132
:1054E000BDE81040FFF7F0BFC4E912332365134B4A
:1054F000134A1B68A262A34204BF0123A361204692
:1055000000F020F86060204600F01CF8A060204603
:1055100000F018F80022E06004216068FFF782FFC5
:10552000A06801220921FFF77DFFE0680222122115
:10553000FFF778FF0123A361D2E700BF9460000862
:105540006D540008F8B50746FFF7ACFF1E4B1E6808
:10555000B36913B93046FFF7BDFF4836D6E90134C9
:10556000013B03D533680BB33668F7E7B4F90C5049
:10557000D5B9164BE36004F15800656600F047F8B2
:10558000FFF796FFC4E90155C4E904552560A561FC
:105590000822294604F15C00FFF7A2FDC4E90D557D
:1055A000C4E912552046F8BD6834D9E704213846CD
:1055B000FFF762FF044630600028D5D1FFF778FF7F
:1055C0000C233B60EEE700BF946000080100FFFF82
:1055D0002DE9F8430646884600F148040027D4E93F
:1055E0000195B9F1010905D52468002CF7D1384699
:1055F000BDE8F883AB89012B07D9B5F90E3001332B
:1056000003D029463046C04707436835E9E770476D
:105610007047704770B50E46B1F90E10002996B06C
:1056200014461D4607DA00232B60B3891A0610D4EE
:105630004FF480630EE06A4600F05EFC0028F2DB67
:10564000019A02F47042A2F500535A425A412A606C
:10565000EEE740230020236016B070BD8B8973B540
:105660009D0706460C4607D504F1470323602361D6
:105670000123636102B070BD01AB6A46FFF7CAFF48
:1056800000990546304600F079F848B9B4F90C3075
:105690009A05EFD423F0030343F00203A381E3E769
:1056A0000D4BB362A389206043F08003A381009B6C
:1056B0006361019B20615BB1B4F90E10304600F0CC
:1056C0002DFC28B1A38923F0030343F00103A38138
:1056D000A0890543A581CDE76D54000837B50029A1
:1056E00048D051F8043C0190002BA1F10404B8BF4C
:1056F000E41800F035FC204A01981368154633B9C8
:105700006360146003B0BDE8304000F02FBCA342DA
:105710000BD921686218934204BF1A685B68636002
:1057200004BF521822602C60ECE71A465B680BB18C
:10573000A342FAD911685518A5420BD12468214417
:105740005418A3421160DDD11C685B68536021448A
:105750001160D7E702D90C230360D3E725686119EC
:105760008B4204BF19685B68636004BF49192160FC
:105770005460C7E703B030BD94000020F8B5CD1CDD
:1057800025F0030508350C2D38BF0C25002D0646E5
:1057900001DBA94203D90C2333600020F8BD00F0DF
:1057A000DFFB21490A6814469CB9204F3B6823B9A6
:1057B0002146304600F02AFB38602946304600F08A
:1057C00025FB431C23D10C233360304600F0CEFB75
:1057D000E3E723685B1B17D40B2B03D923601C441E
:1057E000256004E06368A2420CBF0B605360304642
:1057F00000F0BCFB04F10B00231D20F00700C21ACF
:10580000CCD01B1AA350C9E722466468CCE7C41C5D
:1058100024F00304A042E3D0211A304600F0F6FA47
:105820000130DDD1CFE700BF9400002098000020B8
:105830009368013B002B10B4936008DA9469A3428B
:1058400001DB0A2903D15DF8044BFFF769BC13683B
:10585000581C1060197008465DF8044B7047F8B585
:1058600006460F461446D518AC4201D1002007E089
:1058700014F8011B3A463046FFF7DAFF431CF3D118
:10588000F8BD00002DE9F04F0D469DB01446984636
:10589000064618B183690BB9FFF71CFE894B9D4280
:1058A0001BD175686B6ED90705D4AB899A0502D4F4
:1058B000A86DFFF7ADFEAB891B0701D52B69EBB9CE
:1058C00029463046FFF77EFCC0B16B6EDC070ED573
:1058D0004FF0FF301DB0BDE8F08F7B4B9D4201D1F2
:1058E000B568DFE7794B9D4208BFF568DAE7AB8919
:1058F0009805EDD4A86DFFF78CFEE9E70023099326
:1059000020238DF82930CDF80C803023DFF8C081BA
:105910008DF82A304FF0010923469A4613F8012BDF
:105920000AB1252AF9D1BAEB040B0BD05B4622460B
:1059300029463046FFF793FF013000F0AA80099A0C
:105940005A4409929AF80030002B00F0A2800023FC
:105950004FF0FF32CDE905230AF1010A04930793C2
:105960008DF853301A935446052214F8011B5848F9
:10597000FAF72EFC049AD8B9D10644BF20238DF83B
:105980005330130744BF2B238DF853309AF800305F
:105990002A2B15D0079A544600204FF00A0C2146B6
:1059A00011F8013B303B092B4ED9B0B1079214E0FE
:1059B000A0EB080309FA03F313430493A246D2E7CA
:1059C000039B191D1B680391002BBBBF5B4242F078
:1059D000020207930793B8BF049223782E2B0CD1B1
:1059E00063782A2B35D1039B1A1D1B680392002B69
:1059F000B8BF4FF0FF3302340593DFF8E4A02178FD
:105A000003225046FAF7E4FB40B14023A0EB0A0022
:105A100003FA00F0049B03430134049314F8011BC0
:105A20002C488DF828100622FAF7D2FB00283FD028
:105A3000294B1BBB039B073323F007030833039356
:105A4000099B3B44099367E70CFB02320C4601209B
:105A5000A5E700230134059319464FF00A0C2046B0
:105A600010F8012B303A092A03D9002BC5D0059133
:105A7000C3E70CFB012104460123F0E703AB0093CD
:105A80002A46164B04A93046AFF300800746781C1F
:105A9000D6D16B6ED90705D4AB899A0502D4A86D0F
:105AA000FFF7B7FDAB895B063FF512AF099811E729
:105AB00003AB00932A46094B04A9304600F080F856
:105AC000E4E700BFB8600008D860000898600008EC
